:020000040800F2
:1000000050FB032011020008054C0008B54200080F
:10001000014C0008290F0008BD93000800000000F3
:10002000000000000000000000000000DD7C00086F
:10003000371000080000000047760008B18500086E
:100040002B0200082B0200082B0200082B020008DC
:100050002B0200082B0200082B0200082B020008CC
:100060002B0200082B0200082B0200082B020008BC
:100070002B0200082B0200082B0200082B020008AC
:100080002B0200082D0F00082B0200082B0200088D
:100090002B0200082B0200082B0200083910000870
:1000A0002B0200082B0200082B0200082B0200087C
:1000B0002B0200082B020008A58600082B0200086E
:1000C0002B0200082B0200082B0200082B0200085C
:1000D0002B0200082B020008719300082B02000875
:1000E0002B0200082B0200082B0200082B0200083C
:1000F0002B0200082B0200082B0200082B0200082C
:100100002B0200082B0200082B0200082B0200081B
:100110002B0200082B0200082B0200082B0200080B
:100120002B0200082B0200082B0200082B020008FB
:100130002B0200082B0200082B0200082B020008EB
:100140002B0200082B0200082B0200082B020008DB
:100150002B0200082B0200082B0200082B020008CB
:100160002B0200082B0200082B0200082B020008BB
:100170002B0200082B0200082B02000800000000E0
:100180002B0200082B0200082B0200082B0200089B
:100190002B0200082B0200082B0200082B0200088B
:1001A0002B0200082B0200082B0200082B0200087B
:1001B0002B0200082B0200082B0200082B0200086B
:1001C0002B0200082B020008000000002B02000890
:1001D0002B0200082B0200082B0200082B0200084B
:1001E0002B0200082B0200082B0200082B0200083B
:1001F0002B0200082B020008DFF810D000F028FDC9
:1002000000480047B5A70008AFF3008050FB03206B
:100210000648804706480047FEE7FEE7FEE7FEE7A0
:10022000FEE7FEE7FEE7FEE7FEE7FEE79186000851
:10023000F90100082DE9F04F83B0164699424FF0BE
:100240000107DDF830C009D3BC1E0546CA1804EB0F
:100250004104A01A401C0CEB800C0BE01A460B4624
:10026000114635461A4406464FF0FF370CEB820024
:10027000A0F1080C4FF0010906EB83002A46A0F11B
:100280000400C91AB3F10108CDE9011001F1010020
:1002900000909FEDFC4A0298C3466AD05FEA99013C
:1002A000B0EE440A2CD0B1F1004F0C4680F016821B
:1002B0000029C4BFAE46824622DD00BFDEED003A13
:1002C000DAED004ADEED012A9AED013A03EEA40AC6
:1002D000DEED021A9AED022ADEED030A9AED031A08
:1002E000641E02EE830A0AF1100A0EF1100E01EEEE
:1002F000820A00EE810AE1D102EB011200EB01104B
:1003000019F0030128D0B1F1004F80F007820029D5
:1003100022DDA2F1040411F0010FA0F1040207D0C4
:10032000D4ED010A92ED011A121D241D00EE810A7E
:10033000480811D094ED011AD2ED011AD4ED020A49
:10034000401E01EE210A92ED021A02F1080204F1A8
:10035000080400EE810AEDD1B8F101082A468CEDBF
:10036000000A02980CEB870CA0EB890009F1010947
:1003700094D1042B30464FF000087CD300998C08B0
:1003800018BF4FEA93097DD092ED003A92ED012A11
:1003900008324946B0EE440AF2EC012AF0EE400A77
:1003A000B0EE401AF0EE401AD0ED003AD2ED004A1D
:1003B00000F1040A03EE230A42EE230A02EEA31A16
:1003C00044EEA31ADAED003A92ED013A101D02EE66
:1003D000230A42EEA30A04EEA31A43EE231ADAED2F
:1003E000013A90ED012A0AF1040202EEA30A44EE5A
:1003F000A30A03EE231A42EE231AD2ED013AD0EDFE
:10040000022A00F1080A04EEA30A43EE230A02EED0
:10041000231A42EEA31A02F10800491E0AF104024F
:10042000C2D113F0030113D0F0EC013A491EF2ECF3
:10043000014A03EE230A42EE230A02EEA31A44EE17
:10044000A31AB0EE423AB0EE622AF0EE642AEBD183
:100450000CEB87008CED000AC0ED000A00EB870072
:1004600008F1040880ED001A00EB870005EB880214
:10047000C0ED001A01E078E004E000EB870C3046A4
:10048000641E81D1009911F0030E6DD04FEA930ADA
:10049000C3F34001CDF80010BAF10001B0EE440AF8
:1004A0002BD0BAF1004F0C4680F04281002C24DDA5
:1004B000144631464FEA0A09D4ED003AD1ED004A1C
:1004C000D4ED012A91ED013A03EEA40AD4ED021A0B
:1004D00091ED022AD4ED030A91ED031A103102EED8
:1004E000830A1034B9F1010901EE820A00EE810A93
:1004F000E2D102EB0A1200EB0A1013F0030127D03D
:10050000B1F1004F0C4680F03381002920DD14F05A
:10051000010FA2F10401A0F1040007D0D1ED010AFE
:1005200090ED011A001D091D00EE810A009A7AB1B2
:1005300091ED011AD0ED011AD1ED020A083101EE58
:10054000210A90ED021A0830521E00EE810AEFD106
:1005500008F101083046BEF1010E8CED000A05EBF2
:1005600088020CEB870C97D13CE0DDF80090B9F1E4
:10057000000F37D01900B0EE440A27D0B1F1004F78
:100580007ED2002922DD11F0010FA6F10404A2F1B0
:10059000040207D0D2ED010A94ED011A121D241DA8
:1005A00000EE810A481011D092ED011AD4ED011A23
:1005B000D2ED020A401E01EE210A94ED021A02F168
:1005C000080204F1080400EE810AEDD108F10108E7
:1005D0003046B9F101098CED000A05EB88020CEBFD
:1005E000870CC7D10199BBF1000805EB810101F12E
:1005F0000409494604BF03B0BDE8F08F5FEA9802E2
:10060000B0EE440A2AD0B2F1004F13467DD2002A40
:10061000C4BF4D46344621DDD5ED003AD4ED004A45
:10062000D5ED012A94ED013A03EEA40AD5ED021AA4
:1006300094ED022AD5ED030A94ED031A5B1E02EE37
:10064000830A04F1100405F1100501EE820A00EEA0
:10065000810AE1D101EB021100EB021018F0030254
:100660002CD0B2F1004F7CD2002A27DDA1F1040387
:1006700012F0010FA0F104010CD0D3ED010A03E048
:100680007FE000000000000091ED011A091D1B1D14
:1006900000EE810A500811D093ED011AD1ED011A34
:1006A000D3ED020A401E01EE210A91ED021A01F17A
:1006B000080103F1080300EE810AEDD109F10401FC
:1006C0003046BBF1010B89468CED000A0CEB870C20
:1006D000A8F1010892D103B0BDE8F08FD2ED000A75
:1006E00090ED001A90ED012A92ED013A00EE810A98
:1006F000D0ED022AD2ED021A0C3002F10C02B0EC5D
:10070000011A491EF2EC010A00E043E003EE020A7E
:1007100001EEA20A00EE810AE0D1F1E5F2EC010A55
:10072000491EB0EC011A00EE810AF7D114E600BFB1
:10073000D2ED000A90ED001AD0ED011A92ED013AC7
:1007400000EE810AD0ED022A92ED022A0C3002F16D
:100750000C02F0EC010A03EE210A491EB2EC011A68
:1007600000E03CE002EE220A01EE200AE0D1C4E6FD
:10077000F2EC010A491EB0EC011A00EE810AF7D131
:10078000E6E6F2EC010A491EB0EC011A00EE810A1D
:10079000F7D11BE7D1ED000AD0ED001A031D081DAB
:1007A00000EEA10A93ED001A90ED003AD3ED012A74
:1007B00090ED012A191D03EE010A091DD0ED020A70
:1007C000D1ED001A00F1080301F1040002EE220A43
:1007D000521E03F1040100EEA10ADBD13EE7F1EC69
:1007E000010A521EB0EC011A00EE810AF7D165E74A
:1007F0002DE9F05F0546002092469B468846064656
:10080000814640241BE0284641464746224600F0E8
:1008100057F853465A46C01A914110D3114618460C
:10082000224600F03EF82D1A67EB01084F4622469B
:100830000120002100F035F817EB00094E41201E81
:10084000A4F10104DFDC484631462A464346BDE8B0
:10085000F09FD2B201E000F8012B491EFBD2704795
:100860000022F6E710B513460A4604461946FFF77C
:10087000F0FF204610BD30B50B4601460020202277
:10088000012409E021FA02F59D4205D303FA02F59D
:10089000491B04FA02F52844151EA2F10102F1DCFD
:1008A00030BD202A04DB203A00FA02F10020704714
:1008B0009140C2F1200320FA03F31943904070479E
:1008C000202A04DB203A21FA02F00021704721FAA5
:1008D00002F3D040C2F1200291400843194670470C
:1008E0002DE9FE4F804681EA0300C00F0C460090C0
:1008F00021F0004123F00045B8EB0200A94105D2E8
:100900004046214690461C460B46024623F00040D6
:10091000104347D0270DC7F30A00C3F30A510290D2
:10092000401A019040286BDAC3F3130040F4801B97
:100930000098924620B10023D2EB030A63EB0B0B25
:1009400001985946C0F140025046FFF7AAFF0646FB
:100950000D4650465946019A00F08CF910EB0800FC
:100960006141002487EA115284EAE7731A4340D0B8
:10097000009A62B3019A012A4FEA075215DC001B64
:1009800061EB02014FF0004202EA0752CDE900425A
:10099000001C41F5801132462B4600F08CF903B063
:1009A000BDE8F08F40462146F9E7001B61EB0201EC
:1009B000001C41F5801300185B412018A2F50017B8
:1009C00047EB030140EAD570B6196D4111E06D089F
:1009D0004FEA360645EAC0754FEA0752001B61EB45
:1009E0000201001C41F5801149084FEA300000194E
:1009F000514132462B4603B0BDE8F04F00F04CB9F0
:100A00000098012240000023D0EB020263EBE07368
:100A1000009821464FEAE074B8EB000061EB040156
:100A2000E9E783F000435BE781F0004158E72DE9F7
:100A3000FE4F81EA030404F0004421F000410094D9
:100A40004FF0000B23F0004350EA01045ED052EA5D
:100A500003045BD0C3F30A54C1F30A552C44A4F237
:100A6000F3340194A0FB0254C1F3130141F480114B
:100A7000C3F3130343F4801301FB024400FB034E52
:100A8000840A970A44EA815447EA8357A4FB07681B
:100A900002958D0A05FB07854FEA932C04FB0C5445
:100AA0002705029D4FEA065847EA1637B5EB0805B9
:100AB0006EEB070C870E920E47EA811742EA83120B
:100AC000A7FB0201B6EB0B0164EB00042B0D43EA1C
:100AD0000C335E1844EB1C50DA465146E7FB02012A
:100AE000C5F313044FEA0B3343EA14534FEA0432BD
:100AF000019C43EA0603A4F10C040294009CCDE996
:100B000000B400F0D8F803B0BDE8F08F0020014633
:100B1000F9E72DE9F04D81EA030404F0004B21F0E0
:100B2000004514464FF0000A23F0004150EA050248
:100B300020D054EA01021DD0C5F30A570246C5F37E
:100B40001303C1F31300C1F30A5640F4801543F4B4
:100B50008013A7EB0608101BD64608F2FD3873EB8E
:100B6000050002D308F1010801E092185B41B8F1D9
:100B7000000F03DA00200146BDE8F08D00204FF49D
:100B80008011064684460EE0171B73EB050705D35C
:100B9000121B63EB050306434CEA010C49084FEABC
:100BA000300092185B4150EA0107EDD152EA030090
:100BB00012D082EA040083EA0501084305D0101B25
:100BC000AB4106D20122002306E000224FF0004391
:100BD00002E06FF0010253101AEB06004CEB0851D3
:100BE00010EB0A0041EB0B01BDE8F04D00F054B8EA
:100BF000C1F30A52C1F3130140F2FF3341F48011F3
:100C00009A4202DA00200146704740F233439A428A
:100C1000A2F2334202DC5242FFF752BEFFF741BE5E
:100C200030B5041E71F1000404DB4FF00044404273
:100C300064EB0101141E73F1000405DB1C464FF048
:100C40000043524263EB0403994208BF904230BD17
:100C5000064C074D06E0E06840F0010394E8070009
:100C600098471034AC42F6D3FFF7CAFA78B20108BD
:100C700098B20108202A06DBCB17203A41FA02F08D
:100C800043EAE07306E041FA02F3D040C2F12002E9
:100C9000914008431946704710B5141E73F10004C3
:100CA00008DA401C41F1000192185B411A4301D15E
:100CB00020F0010010BD2DE9F04D92469B4611B188
:100CC000B1FA81F202E0B0FA80F220329046FFF7EA
:100CD000E8FD04460F4640EA0A0041EA0B0153468C
:100CE0005A46084313D0114653EA010019D0C8F1FF
:100CF00040025046FFF7E4FD05460E465046594671
:100D00004246FFF7CEFD084305D0012004E020460F
:100D10003946BDE8F08D0020054346EAE0762C43D5
:100D200037430A986305E40AA0EB08000022FD0A95
:100D300044EA47540A3002D500200146E9E701059C
:100D400010196941DDE9084500196941BDE8F04D18
:100D5000A2E730B58C1810F8012B12F00F0301D167
:100D600010F8013B120906D110F8012B03E010F82E
:100D7000015B01F8015B5B1EF9D101E001F8013B69
:100D8000521EFBD1A142E6D3002030BD30B5034650
:100D90000C46002019E0002114E033F8105000EE5A
:100DA000105AF8EEC00A9FED0A1A80EE810AF2EEA0
:100DB000040A20EE200A54F8205005EB810585ED49
:100DC000000A491C9142E8DB401C0428E3DB30BDEB
:100DD00000FEFF462DE9F04104460D4616461F462B
:100DE0004FF0000845F440702080012000F08AFC9C
:100DF00045F480602080012000F084FC45F4A06070
:100E00002080012000F07EFC45F4C060208001209D
:100E100000F078FC46F4E0602080012000F072FCD5
:100E200047F400602080012000F06CFC4FF42F405C
:100E30002080012000F066FCB4F80080012000F062
:100E400061FC002020804046BDE8F08170B5054679
:100E50000E460020304908700021304802F066FD3F
:100E60002E4802F06FFA53E000BF2B4800780128AB
:100E7000FBD12948007801284AD1B44239D028480A
:100E800000680088E10025F8110025480068018805
:100E9000E000401C25F81010214800680188E0009F
:100EA000801C25F810101E4800680188E000C01C56
:100EB00025F810101A4800680188E000001D25F888
:100EC0001010174800680188E000401D25F8101038
:100ED000134800680188E000801D25F810101048B4
:100EE00000680188E000C01D25F81010601C84B265
:100EF0000BE0002401200B490870084802F076FA44
:100F00000021064802F0B4FD03E000200249087009
:100F1000AAE700BF70BD0000F0040020B43101203A
:100F2000F4040020F804002000BFFEE710B50748D5
:100F300000F022FA064802F059FA0021044802F0B3
:100F400097FD01200349087010BD00004C320120BC
:100F5000B4310120F8040020014608781038182325
:100F6000B0FBF3F20848805CC865032A05D908681D
:100F70006FF30900001D886503E008686FF309003E
:100F80008865886D7047000018AB00080146002096
:100F90008A6A8B69CBB932B1012A0DD0022A03D0FB
:100FA000032A10D10EE000BFCB6A03F08073B3F1C7
:100FB000807F00D1012007E0CB6AB3F1C07F00D170
:100FC000012001E000E000BF34E08B69B3F5005F71
:100FD0001AD132B1012A07D0022A03D0032A11D133
:100FE0000AE000BF01200EE0CB6A03F08073B3F18A
:100FF000807F00D1012006E0CB6AB3F1C07F00D131
:10100000012000E000BF15E032B1012A05D0022A1C
:1010100004D0032A0CD103E000BF00BF012008E088
:10102000CB6A03F08073B3F1807F00D1012000E030
:1010300000BF00BF7047704701200349087040207F
:101040000249086070470000F0040020143C014091
:101050007047000070B50446B3F5804F13D1D1E955
:10106000000540EA05108D6840EA05208D69284397
:101070008D8940EA054054F82250064E35402843F9
:1010800044F8220003E06FF0704044F82200002092
:1010900070BD00000000F0CF70B50246086852F83D
:1010A000200020F001000E6842F826008868082819
:1010B00001D1402500E00025486828438E68304370
:1010C000CE6830430E6930434E6930438E693043F9
:1010D000CE6930430E6A30434E6A30438E6A3043E5
:1010E000CE6A40EA0603086B0343486B0343886BF0
:1010F0000343114C44F4801444F4001444F4E024F9
:10110000086852F82000A04318430E6842F82600F1
:10111000086BB0F5801F07D1086828B1106820F46B
:1011200080100E6B30431060086818B110684E6B69
:1011300030431060002070BD7FFB080030B50346CF
:10114000D1E9000540EA05108D6840EA05208D8947
:1011500040EA0545088A401E45EA0055087D801E84
:1011600045EA00608D692843551C53F8255005F069
:1011700040452843551C43F82500186800F48010AA
:10118000B0F5801F0BD1586820F47004088A401E07
:1011900044EA0054586820F470002043586000204E
:1011A00030BD02460868B0B9D1E901031843CB68E5
:1011B00018430B6918434B6918438B691843CB6973
:1011C00018430B6A18434B6A184313686FF30E03F6
:1011D0001843106019E0D1E9070318434B6A18431C
:1011E000136823F4F84318431060D1E9010318434E
:1011F000CB6818430B6918434B6918438B69184334
:1012000053686FF30E0318435060002070470000CE
:1012100030B50346FAB90868401E4C68641E40EABF
:1012200004148868401E44EA0024C868401E44EA4A
:101230000034088A401E44EA0044888A401E44EA7A
:101240000054087E401E44EA00609C6804F070442C
:101250002043986022E0C868401E0403888A401E2C
:1012600044EA00509C680E4D2C402043986008686A
:10127000401E4C68641E40EA04148868401E44EA1C
:101280000024088A401E44EA0044087E401E44EAC6
:101290000060DC6804F070442043D860002030BD5A
:1012A000FF0F0FFF70B50446A56D00F0C9FB0646A1
:1012B00094F83500022808D08020606500BF002027
:1012C00084F8340000BF012070BD2068006820F061
:1012D0001600216808602068406920F080002168BD
:1012E0004861206C08B9A06C28B12068006820F023
:1012F0000800216808602068006820F0010021686B
:10130000086010E000F09CFB801B05280BD9202012
:101310006065032084F8350000BF002084F83400A5
:1013200000BF0320D0E72068006800F0010000281B
:10133000E8D194F85C103F208840A860012084F830
:10134000350000BF002084F8340000BF00BFBBE7B9
:10135000014691F83500022803D08020486501201D
:101360007047052081F835000868006820F001000A
:101370000A6810600020F3E7F8B5044600200090EA
:101380008C4800684FF41651B0FBF1F7A56D2E683C
:1013900094F85C1008208840304098B120680068BC
:1013A00000F0040070B12068006820F0040021689B
:1013B000086094F85C1008208840A860606D40F0D8
:1013C0000100606594F85C1001208840304068B1ED
:1013D0002068406900F0800040B194F85C10012062
:1013E0008840A860606D40F00200606594F85C1071
:1013F00004208840304068B12068006800F0020096
:1014000040B194F85C1004208840A860606D40F002
:101410000400606594F85C1010208840304078B378
:101420002068006800F0080050B394F85C101020A9
:101430008840A8602068006800F4802080B120689F
:10144000006800F4002028B9206CC8B12046216C47
:10145000884715E0A06C98B12046A16C88470FE042
:101460002068006800F4807028B92068006820F0C7
:10147000080021680860206C10B12046216C884764
:1014800094F85C10202088403040002865D0206807
:10149000006800F0100000285FD094F85C10202055
:1014A0008840A86094F83500052828D12068006895
:1014B00020F01600216808602068406920F0800054
:1014C00021684861206C08B9A06C28B120680068C8
:1014D00020F008002168086094F85C103F208840E4
:1014E000A860012084F8350000BF002084F8340093
:1014F00000BF206D10B12046216D8847F8BD2068DF
:10150000006800F4802080B12068006800F40020AA
:1015100028B9606C10B12046616C88471DE0E06B13
:10152000D8B12046E16B884717E02068006800F4D6
:10153000807068B92068006820F010002168086099
:10154000012084F8350000BF002084F8340000BF7B
:10155000E06B10B12046E16B8847606D38B3606D79
:1015600000F00100F0B1052084F835002068006823
:1015700020F001002168086000BF0098401C009026
:10158000B84200D905E02068006800F0010000289A
:10159000F3D100BF012084F8350000BF002084F89B
:1015A000340000BFE06C10B12046E16C884700BFFA
:1015B000A4E70000EC0400202DE9F04104460025DA
:1015C00000F03EFA074614B90120BDE8F081606AD8
:1015D00000B100BF022084F8350000BF002084F86D
:1015E000340000BF2068006820F001002168086016
:1015F0000AE000F025FAC01B052805D92020606507
:10160000032084F83500E0E72068006800F001005E
:101610000028EED12068056821480540D4E9010181
:101620000843E16808432169084361690843A169E7
:101630000843E1690843216A08430543606A0428B6
:1016400003D1D4E90B0108430543206805602068F5
:10165000456925F00705606A0543606A04280DD1D5
:10166000A06A0543E06A48B12046FFF78FFC28B125
:1016700040206065012084F83500A6E720684561B8
:101680002046FFF769FC064694F85C103F2088402E
:10169000B06000206065012084F83500002094E7E8
:1016A0003F8010E010B50346002400BF93F83400DB
:1016B000012801D1022010BD012083F8340000BFB1
:1016C00093F83500012815D1062910D2DFE801F082
:1016D000030507090B0DDA630BE01A6409E05A648D
:1016E00007E09A6405E0DA6403E01A6501E001248A
:1016F00000BF00E0012400BF002083F8340000BFD9
:101700002046D8E770B5044600F09AF9064625460B
:10171000681C10B104480078054400BF00F090F93F
:10172000801BA842FAD370BDE804002000B587B042
:10173000142102A8FFF794F83048006808B107B0F8
:1017400000BD01202D49086000BF2D48006840F011
:1017500001002B4908600846006800F00100019074
:1017600000BF00BF4FF63F00029002200390002010
:101770000490032005900C20069002A9214800F057
:101780004BF80D20029002200390002004900320CB
:1017900005900C20069002A91B4800F03DF849F284
:1017A000371002900220039000200490032005903F
:1017B0000C20069002A9154800F02EF84FF6837011
:1017C00002900220039000200490032005900C203A
:1017D000069002A90E4800F01FF84CF233700290F8
:1017E0000220039000200490032005900C20069016
:1017F00002A9084800F010F800BFA0E7D4040020B8
:10180000383802400014024000080240001802402C
:1018100000100240000C0240F8B502460B460021C1
:1018200000250024002000BFDEE0012606FA01F5B5
:101830001E6806EA0504AC4272D11E7906F0030662
:10184000012E04D01E7906F00306022E13D19068F3
:101850004F000326BE40B0434F00DE68BE40304319
:101860009060506801268E40B0431E79C6F3001682
:101870008E40304350601E7906F00306032E09D0D7
:10188000D0684F000326BE40B0434F009E68BE4064
:101890003043D0601E7906F00306022E13D1CF0824
:1018A00002F1200656F827004E07F70E0F26BE401D
:1018B000B0434F07FF0E1E69BE403043CF0802F110
:1018C000200646F8270010684F000326BE40B043AC
:1018D0001E7906F003064F00BE40304310605E687C
:1018E00006F44036002E7ED000BF414E366846F4E6
:1018F00080463F4F3E603E46366806F4804600967E
:1019000000BF00BF3B4E8F0856F827008E07370FE9
:101910000F26BE40B043384EB24202D100262EE020
:1019200061E0364EB24201D1012628E0344EB24287
:1019300001D1022623E0334EB24201D103261EE03C
:10194000314EB24201D1042619E0304EB24201D1EB
:10195000052614E02E4EB24201D106260FE02D4E90
:10196000B24201D107260AE02B4EB24201D108262D
:1019700005E02A4EB24201D1092600E00A268F076F
:101980003F0FBE4030431B4E8F0846F82700244EC1
:101990003068A0435E6806F4801606B12043204EEE
:1019A0003060361D3068A0435E6806F4001606B14C
:1019B00020431B4E361D3060194E361F3068A04341
:1019C0005E6806F4003606B12043154E361F3060BF
:1019D000361F3068A0435E6806F4803606B12043A7
:1019E0000F4E083E3060491C1029FFF41EAFF8BDB1
:1019F0004438024008380140000002400004024020
:101A000000080240000C0240001002400014024096
:101A100000180240001C0240002002400024024046
:101A2000083C0140024613690B400BB1012000E065
:101A3000002070470AB1816101E00B0483617047A7
:101A40000148006870470000E00400200348006877
:101A5000034909780844014908607047E004002000
:101A6000E804002010B5032000F000F9002000F089
:101A700005F800F08DF8002010BD000070B5044698
:101A80000E4800784FF47A71B1FBF0F00C49096808
:101A9000B1FBF0F5284601F028FB08B1012070BD2C
:101AA000102C07D200222146501E00F0A1F8054854
:101AB000046001E00120F2E70020F0E7E8040020E4
:101AC000EC040020E40400204178154A11600178FC
:101AD000F9B1121D41681160017B0907C27A41EA20
:101AE0000261827A41EAC241427B41EA8241827BC1
:101AF00041EA4241C27B41EA0241427A41EA022183
:101B0000027A41EA420102781143054A0832116023
:101B100005E00021024A121D1160121D116070477C
:101B200098ED00E000BF00BF00BFBFF35F8F00BFB4
:101B300000BF00BF0548006820F4803003490860FA
:101B400000200249703108607047000024ED00E079
:101B500040F001010D4A11600C497039096841F4E7
:101B600080310A4A703A116000BF00BF00BFBFF366
:101B70004F8F00BF00BF00BF00BF00BF00BFBFF35B
:101B80006F8F00BF00BF00BF7047000094ED00E002
:101B900008B500BF0D48006840F080500B49086050
:101BA0000846006800F08050009000BF00BF00BFF2
:101BB000081D006840F48040091D08600846006860
:101BC00000F48040009000BF00BF08BD40380240D4
:101BD00001460846002809DB00F01F0301229A4055
:101BE00043099B0003F1E023C3F8002100BF7047C5
:101BF0002DE9F05F80460D461646002707F01CFFD2
:101C0000074639462A46334601F00700C0F1070A65
:101C1000BAF1040F02D94FF0040A01E0C0F1070A3B
:101C2000D14600F1040ABAF1070F02D24FF0000AC0
:101C300001E0A0F1030AD4464FF0010A0AFA09FABA
:101C4000AAF1010A0AEA020A0AFA0CFA4FF0010B99
:101C50000BFA0CFBABF1010B0BEA030B4AEA0B048A
:101C60002146404607F0F0FEBDE8F09F00BF00F0BF
:101C70000702064B19684FF6FF031940044B0B434C
:101C800043EA0221014B196000BF70470CED00E0F0
:101C90000000FA0538B5002400BF2048006840F075
:101CA00080501E4908600846006800F0805000908F
:101CB00000BF00BF1A48006840F48030184908602F
:101CC000FFF7BEFE044607E0FFF7BAFE001BB0F5C3
:101CD0007A7F01D9032038BD1148406800F4803074
:101CE000B0F5803FF0D10E48006840F400300C4958
:101CF0000860FFF7A5FE044607E0FFF7A1FE001B02
:101D0000B0F57A7F01D90320E5E70548406800F483
:101D10000030B0F5003FF0D10020DCE74038024051
:101D2000007000402DE9F84304460D461746FFF7C2
:101D300087FE8046A86900B100BFE86900B100BF16
:101D4000286A00B100BF00BF94F84000012802D10A
:101D50000220BDE8F883012084F8400000BF94F819
:101D60004100012828D100206064022084F841004D
:101D70004346002220212046009705F089FF0646B1
:101D8000DEB900222946204605F08EFE686A78B941
:101D90004346012202212046009705F079FF0646BE
:101DA0005EB902202168C860012084F8410004E087
:101DB000012084F8410000E0022600BF002084F8E2
:101DC000400000BF3046C4E7F8B50446FFF738FED0
:101DD00006460CB90120F8BD206A402800D000BF9B
:101DE00094F8410050B9002084F84000204600F0EB
:101DF0004BF841F28831204600F032F92068006843
:101E000020F4F851A068401E41EA002021680860D3
:101E1000A06C3346002220210090204605F038FFB8
:101E2000054635BB2179E06840EA0160E169084375
:101E3000216A084321680968114A11400843216852
:101E40000860208A616941EA0040A169084321686D
:101E500049680C4A114008432168486020680068BE
:101E600040F001002168086000206064012084F8CF
:101E7000410000BF002084F8400000BF2846AAE7C8
:101E80002FFFFF00FEF8E0FF10B586B004461421D6
:101E900001A8FEF7E5FC35492068884263D100BF00
:101EA0003348006840F00200314908600846006885
:101EB00000F00200009000BF00BF00BF2C480838AF
:101EC000006840F020002A49083908600846006888
:101ED00000F02000009000BF00BF00BF084600686F
:101EE00040F0020008600846006800F00200009020
:101EF00000BF00BFC020019002200290002003908C
:101F0000032004900920059001A91A48FFF784FCDA
:101F10004FF44070019002200290002003900320B3
:101F200004900A20059001A91248FFF775FC0420CF
:101F300001900220029000200390032004900920C9
:101F4000059001A90C48FFF767FC40200190022092
:101F5000029001200390032004900A20059001A91B
:101F60000548FFF759FC06B010BD0000001000A0A6
:101F70003838024000140240000402402DE9F84FB6
:101F800004460E4617460025FFF75AFD8046206896
:101F9000D0F81890206800F1200A00BF94F84000A3
:101FA000012802D10220BDE8F88F012084F840000A
:101FB00000BF94F8410001284AD100206064002E3F
:101FC00040D0222084F8410020680069401CA063B2
:101FD00020680069401C606326632068406920F027
:101FE000406040F08060216848612068C0F8189027
:101FF00013E04346012206212046009705F048FEE3
:10200000054605B10CE09AF80000216B0870206BC2
:10201000401C2063A06B401EA063A06B0028E8D189
:1020200000BF5DB94346012202212046009705F01A
:102030002FFE054615B902202168C860012084F8EA
:10204000410006E0606C40F008006064012500E09B
:10205000022500BF002084F8400000BF2846A2E708
:10206000816470472DE9F84304460E461746002563
:10207000FFF7E6FC8046206800F1200900BF94F8D5
:102080004000012802D10220BDE8F883012084F835
:10209000400000BF94F84100012845D10020606451
:1020A000002E3BD0122084F8410020680069401CBB
:1020B000E06220680069401CA06266622068406996
:1020C00020F040602168486113E04346012204216A
:1020D0002046009705F0DCFD054605B10CE0606A7E
:1020E000007889F80000606A401C6062E06A401E67
:1020F000E062E06A0028E8D100BF5DB943460122F2
:1021000002212046009705F0C3FD054615B90220BF
:102110002168C860012084F8410006E0606C40F04E
:1021200008006064012500E0022500BF002084F85B
:10213000400000BF2846A7E72DE9F84304460026E3
:1021400000250027A846A946207800F0010088B1A4
:1021500000BFFE48006820F40000FC490860084603
:102160000068616B0843F949086000BF606B08B9FB
:102170004FF00108206800F40020B0F5002F13D1C3
:10218000F2488430006820F44010E16B0843EF49C6
:1021900084310860E06BB0F5801F01D14FF0010879
:1021A000E06B08B94FF00109206800F48010B0F529
:1021B000801F13D1E5488430006820F44000216C72
:1021C0000843E24984310860206CB0F5800F01D1EA
:1021D0004FF00108206C08B94FF00109206800F0A9
:1021E0008070B0F1807F01D14FF00108207800F0BD
:1021F0002000202870D100BFD4483830006840F05B
:102200008050D249383108600846006800F080509C
:10221000009000BF00BFCE48006840F48070CC49F9
:102220000860FFF70DFC064607E0FFF709FC801B7E
:10223000642802D90320BDE8F883C548006800F48B
:1022400080700028F1D0C1486830006800F4407503
:1022500085B3208E00F44070A8422BD0BB48683074
:10226000006820F44075B9486830006840F4803058
:10227000B649683108600846006820F4803008607C
:1022800008460560006800F0010098B1FFF7D8FB30
:10229000064608E0FFF7D4FB801B41F288318842F4
:1022A00001D90320C7E7A94868300068C0F340009F
:1022B0000028EFD000BF208E00F44070B0F5407FC2
:1022C0000BD1A248006820F4F810A24A216B1140FB
:1022D00008439E49086006E010E09C48006820F42E
:1022E000F8109A490860994868300068218EC1F357
:1022F0000B01084395496831086000BF207800F061
:102300001000102810D100BF90488430006820F0E1
:1023100080708E498431086008460068A16B0843CC
:102320008A498431086000BF208800F48040B0F5FD
:10233000804F09D185488830006820F44030616EB4
:102340000843824988310860208800F40040B0F5D5
:10235000004F09D17D488830006820F44020A16EEC
:1023600008437A4988310860206800F48030B0F56D
:10237000803F09D175488830006820F44010E16E34
:102380000843724988310860206800F40030B0F5D5
:10239000003F09D16D488830006820F44000216F6B
:1023A00008436A4988310860207800F040004028DE
:1023B00009D166488830006820F00300616C08434A
:1023C000624988310860207800F08000802809D1B7
:1023D0005E488830006820F00C00A16C08435B491F
:1023E00088310860208800F48070B0F5807F09D1C2
:1023F00056488830006820F03000E16C08435349AB
:1024000088310860208800F40070B0F5007F09D1A1
:102410004E488830006820F0C000216D08434B49C9
:1024200088310860208800F48060B0F5806F09D1A1
:1024300046488830006820F44070616D0843434985
:1024400088310860208800F40060B0F5006F09D181
:102450003E488830006820F44060A16D08433B4945
:1024600088310860208800F48050B0F5805F09D181
:1024700036488830006820F44050E16D0843334905
:1024800088310860208800F40050B0F5005F09D161
:102490002E488830006820F44040216E08432B49C4
:1024A00088310860206800F48000B0F5800F09D101
:1024B00026488830006820F08060A16F08432349D7
:1024C00088310860206800F40010B0F5001F0FD1BB
:1024D0001E488830006820F00060E16F08431B4907
:1024E00088310860E06FB0F1006F01D14FF0010951
:1024F000207800F00800082801D14FF00109206879
:1025000000F48020B0F5802F09D110488830006891
:1025100020F04070616F08430C49883108602068E2
:1025200000F40000B0F5000F0AD1084888300068B8
:1025300020F08050D4F880100843044988310860A6
:10254000206800F08060B0F1806F05E0083802403C
:1025500000700040FFFCFF0F08D1CD48006820F05C
:102560000050D4F884100843C9490860206800F07E
:102570000060B0F1006F0AD1C548001F006820F06C
:102580000070D4F888100843C149091F086020680A
:1025900000F08050B0F1805F0AD1BD48001F006894
:1025A00020F08060D4F88C100843B949091F0860F6
:1025B000B8F1010F05D0206800F00070B0F1007F85
:1025C0007ED1B3489038006820F08060B0499039DF
:1025D0000860FFF735FA064606E0FFF731FA801B80
:1025E000642801D9032026E6A94890380068C0F382
:1025F000C0600028F1D1207800F00100B8B1606B14
:10260000A8B9A3480C380068C0F30145A0480C38AD
:102610000068C0F303676068800140EA054040EA53
:102620000761207A41EA007099490C3908602068F6
:1026300000F40020B0F5002F03D1E06BB0F5801F4F
:1026400009D0206800F48010B0F5801F24D1206CE0
:10265000B0F5800F20D18E480C380068C0F30145DA
:102660008B480C380068C0F302776068800140EA4C
:102670000541207B41EA006040EA077084490C393B
:1026800008608348001F006820F01F00616A491E2F
:1026900008437F49091F0860206800F08070B0F18E
:1026A000807F17D17A480C380068C0F303657848FA
:1026B0000C380068C0F3027760688101208A00E06E
:1026C00036E041EA004040EA056040EA07707049A0
:1026D0000C390860206800F00070B0F1007F0DD167
:1026E00060688101208A41EA0041207B41EA006163
:1026F000207A41EA007066490C39086064489038D5
:10270000006840F08060624990390860FFF798F9EE
:10271000064606E0FFF794F9801B642801D90320E0
:1027200089E55B4890380068C0F3C0600028F1D0AC
:10273000B9F1010F7ED156489038006820F08050E2
:10274000534990390860FFF77BF9064606E0FFF72A
:1027500077F9801B642801D903206CE54C48903838
:102760000068C0F340700028F1D1206800F4002018
:10277000B0F5002F01D1E06B38B1206800F4801073
:10278000B0F5801F22D1206C00BB4148083800689A
:10279000C0F301453E4808380068C0F3027760691D
:1027A000800140EA0541207E41EA006040EA07706E
:1027B000374908390860081D006820F4F851A06AFC
:1027C000401E41EA00203249091F0860206800F4D9
:1027D0000010B0F5001F19D1E06FB0F1006F15D1F6
:1027E0002B4808380068C0F303652948083800689A
:1027F000C0F3027760698101208C41EA004040EA21
:10280000056040EA0770224908390860207800F026
:102810000800082820D11E4808380068C0F3036566
:102820001B4808380068C0F301476069800140EA2E
:10283000074000E02AE040EA0561207F41EA00709D
:10284000134908390860081D006820F44030E16A27
:1028500008430F49091F08600D489038006840F090
:1028600080500B4990390860FFF7EAF8064606E009
:10287000FFF7E6F8801B642801D90320DBE4044855
:1028800090380068C0F340700028F1D00020D2E4F6
:102890009038024070B504460D4600260CB9012060
:1028A00070BD5C48006800F00F00A8420ED2594885
:1028B000006820F00F002843564908600846006869
:1028C00000F00F00A84201D00120E9E7207800F0D5
:1028D000020002281DD1207800F00400042805D150
:1028E0004D48006840F4E0504B490860207800F003
:1028F0000800082805D14848006840F4604046496F
:1029000008604548006820F0F000A168084342498B
:102910000860207800F0010090B36068012807D1BA
:102920003D4808380068C0F34040A0B90120B7E72F
:102930006068022807D1384808380068C0F3406052
:1029400048B90120ACE7344808380068C0F34000BB
:1029500008B90120A4E73048006820F0030061684E
:1029600008432D490860FFF76BF8064609E0FFF7BA
:1029700067F8801B41F28831884202D903208FE733
:1029800007E02548006800F00C006168B0EB810F9B
:10299000EDD12048006800F00F00A8420ED91D4874
:1029A000006820F00F0028431A49086008460068B4
:1029B00000F00F00A84201D0012071E7207800F05C
:1029C0000400042807D11448006820F4E050E168AE
:1029D000084311490860207800F00800082808D151
:1029E0000D48006820F46040216940EAC1000A49AE
:1029F000086000F03FF808490968C1F30311074A6D
:102A0000515CC8400649086006480068FFF736F880
:102A1000002045E7003C02400838024020AB000897
:102A2000EC040020E4040020014800687047000026
:102A3000EC04002000B5FFF7F7FF04490968C1F373
:102A40008221034A515CC84000BD000008380240A2
:102A500030AB000800B5FFF7E7FF04490968C1F390
:102A60004231034A515CC84000BD000008380240B2
:102A700030AB00082DE9F047002400250026A146D0
:102A80002548006800F00C0020B1042805D0082873
:102A90003AD105E0DFF8849039E0DFF8849036E041
:102AA0001D48001F006800F03F041B48001F00681D
:102AB00000F4800078B11A481749091F0968C1F36A
:102AC0008811A0FB01700146224600233846FDF71D
:102AD0008FFE05460EE011480F49091F0968C1F332
:102AE0008811A0FB01700146224600233846FDF7FD
:102AF0007FFE05460848001F0068C0F30140401CE7
:102B00004600B5FBF6F902E0DFF8109000BF00BF09
:102B10004846BDE8F0870000083802400024F40071
:102B200040787D01F8B5044600270CB90120F8BDB6
:102B3000207800F00100002871D0F948006800F00A
:102B40000C0004280DD0F648006800F00C0008289E
:102B500013D1F348001F006800F48000B0F5800F27
:102B60000BD1EF4808380068C0F34040002869D016
:102B70006068002866D10120D9E700BF6068B0F521
:102B8000803F08D1E6480838006840F48030E449C6
:102B9000083908602EE0606868B9E14808380068C4
:102BA00020F48030DE49083908600846006820F4C7
:102BB000802008601EE06068B0F5A02F0DD1D848D5
:102BC0000838006840F48020D54908390860084674
:102BD000006840F4803008600CE0D1480838006894
:102BE00020F48030CE49083908600846006820F497
:102BF0008020086000BF606890B1FEF721FF0546A5
:102C000006E0FEF71DFF401B642801D903208EE774
:102C1000C34808380068C0F340400028F1D011E0F4
:102C2000FEF70EFF054606E0FEF70AFF401B64288C
:102C300001D903207BE7BA4808380068C0F3404058
:102C40000028F1D1207800F00200022869D1B448B0
:102C5000006800F00C0058B1B148006800F00C00AA
:102C600008281CD1AE48001F006800F48000B0B9ED
:102C7000AB4808380068C0F3400020B1E068012884
:102C800001D0012053E7A6480838006820F0F8007A
:102C9000216940EAC100A2490839086041E0E068C2
:102CA00028B39F480838006840F001009C49083963
:102CB0000860FEF7C5FE054606E0FEF7C1FE401BB4
:102CC000022801D9032032E7954808380068C0F38C
:102CD00040000028F1D092480838006820F0F80041
:102CE000216940EAC1008E490839086019E08C4822
:102CF0000838006820F00100894908390860FEF7AB
:102D00009FFE054606E0FEF79BFE401B022801D908
:102D100003200CE7824808380068C0F34000002810
:102D2000F1D1207800F00800082836D16069D0B1D0
:102D30007B486C30006840F0010079496C310860D4
:102D4000FEF77EFE054606E0FEF77AFE401B0228EF
:102D500001D90320EBE672486C300068C0F34000F4
:102D60000028F1D019E06E486C30006820F00100B6
:102D70006B496C310860FEF763FE054606E0FEF71E
:102D80005FFE401B022801D90320D0E664486C3066
:102D90000068C0F340000028F1D1207800F0040062
:102DA000042874D15E483830006800F0805080B943
:102DB00000BF5B483830006840F0805058493831D7
:102DC00008600846006800F08050009000BF00BF17
:102DD00001275448006800F48070B0B95148006879
:102DE00040F480704F490860FEF72AFE054606E071
:102DF000FEF726FE401B642801D9032097E64948C8
:102E0000006800F480700028F2D000BFA06801289C
:102E100008D143486830006840F0010040496831FB
:102E200008602DE0A06868B93D486830006820F06F
:102E300001003B49683108600846006820F0040042
:102E400008601DE0A06805280DD13548683000688D
:102E500040F004003249683108600846006840F0DC
:102E6000010008600CE02E486830006820F0010086
:102E70002B49683108600846006820F004000860AB
:102E800000BFA068A8B1FEF7DBFD054609E02EE013
:102E9000FEF7D6FD401B41F28831884201D903205C
:102EA00045E61F4868300068C0F340000028EFD0B6
:102EB00013E0FEF7C5FD054608E0FEF7C1FD401B27
:102EC00041F28831884201D9032030E61448683045
:102ED0000068C0F340000028EFD1012F07D110484F
:102EE0003830006820F080500D4938310860A06902
:102EF000002854D00A48006800F00C00082867D069
:102F0000A06902284CD106480838006820F080707B
:102F1000034908390860FEF793FD05460BE0000001
:102F20000838024000700040FEF78AFD401B02286E
:102F300001D90320FBE53F480068C0F3406000284A
:102F4000F2D1D4E907010843616A40EA8111012204
:102F5000A06AC2EB500041EA00412C20005D41EA2A
:102F600000613020005D41EA00703249091D0860AF
:102F7000081F006840F08070091F0860FEF760FDC0
:102F8000054606E0FEF75CFD401B022801D9032040
:102F9000CDE528480068C0F340600028F2D047E043
:102FA0002448006820F0807022490860FEF748FD40
:102FB000054606E0FEF744FD401B022801D9032028
:102FC000B5E51C480068C0F340600028F2D12FE04E
:102FD0001848001D0668A069012827D006F4800162
:102FE000E069814222D106F03F01206A81421DD171
:102FF00047F6C0703040616AB0EB811F16D106F40D
:1030000040310122A06AC2EB5000B1EB004F0DD15C
:1030100006F070612C20005DB1EB006F06D106F068
:10302000E0413020005DB1EB007F01D001207EE562
:1030300000207CE50038024070B504460D460CB90E
:10304000012070BD94F82C0028B9002084F82D00D0
:10305000204600F011F8022084F82C00211D206881
:10306000FEF79FF82946D4E90002FEF7D1F80120C7
:1030700084F82C000020E4E710B50446FEF756FB68
:1030800010BD70B504460E4615460CB9012070BD42
:1030900094F8450028B9002084F84400204600F048
:1030A0001FF804F108012068FDF7F6FF3146A26819
:1030B0002068FEF743F82946E36AD4E90102FDF7E8
:1030C000C9FFA168206850F8210040F00100A26803
:1030D000216841F82200012084F845000020D6E74D
:1030E00010B50446FEF722FB10BD70B50446254618
:1030F000681EB0F1807F01D301200FE0681E4FF001
:10310000E02148610F214FF0FF3006F09DFC0020C8
:103110004FF0E021886107200861002070BD7047F2
:103120007047704730B502460B4600BF92F83C002E
:10313000012801D1022030BD012082F83C0000BFEF
:10314000022082F83D001068416810688468214DB3
:103150001068A84203D0204D1068A84203D121F482
:1031600070015868014321F070011868014310682C
:103170004160184D1068A8421BD01068B0F1804F14
:1031800017D0164D1068A84213D0154D1068A842EC
:103190000FD0144D1068A8420BD00F4D1068A842F4
:1031A00007D0114D1068A84203D0104D1068A842F6
:1031B00005D124F0800498680443106884600120DD
:1031C00082F83D0000BF002082F83C0000BF00BF35
:1031D000B1E700000000014000040140000400408D
:1031E00000080040000C0040004001400018004072
:1031F00010B504460CB9012010BD94F83D0028B963
:10320000002084F83C00204600F02AF8022084F8D0
:103210003D00211D206805F04DFA012084F848008A
:1032200000BF84F83E0001213F2001554020015598
:1032300041200155422001554320015500BF00BFE8
:10324000012084F8440045200155462001554720BF
:10325000015500BF012084F83D000020CCE70000AC
:1032600038B504463049206888424AD100BF2F480B
:10327000006840F004002D4908600846006800F02E
:103280000400009000BF00BF29482A4908604FF0A1
:1032900080604860002127488160C1604FF48061F0
:1032A000016149004161890081610021C1610162C0
:1032B00004214162032181624FF08071C162891053
:1032C0000163FEF779F908B1FDF7C2FE00BF1948A6
:1032D0002062846300BF002211461E20FEF788FC96
:1032E0001E20FEF775FC144A00211248FEF7DAF999
:1032F00012480068C06840F4807010490968C860CE
:1033000011E00F49206888420DD100BF07480068CE
:1033100040F00800054908600846006800F0080011
:10332000009000BF00BF38BD000800404038024098
:10333000A06002404C32012000000000B4310120A6
:10334000000C0040014691F83D00012801D0012009
:103350007047022081F83D001C4B086898421BD042
:103360000868B0F1804F17D0194B0868984213D005
:10337000184B086898420FD0174B086898420BD03A
:10338000164B0868984207D0154B0868984203D03E
:10339000144B0868984210D108688068124B00EA04
:1033A0000302062A0FD0B2F5803F0CD008680068EF
:1033B00040F001000B68186005E00868006840F004
:1033C00001000B6818600020C2E700000000014007
:1033D0000004004000080040000C004000040140D0
:1033E000004001400018004007000100014600BFF6
:1033F0000868006A41F21112104050B90868006A6A
:103400009210104028B90868006820F001000A688E
:10341000106000BF012081F83D00002070470000CF
:103420002DE9F04104460D46002700BF94F83C000A
:10343000012802D10220BDE8F081012084F83C007F
:1034400000BF022084F83D002068866837480640A7
:1034500026F47F46206886602868502833D00CDC2C
:10346000202850D004DC00284BD0102851D149E04E
:10347000302849D040284CD139E060282DD0702820
:1034800007D0B0F5805F03D0B0F5005F41D10DE00B
:1034900041E0D5E902136A68206805F088F92068E0
:1034A000866846F077062068866034E0D5E9021326
:1034B0006A68206805F07BF92068806840F48040E5
:1034C0002168886027E0EA686968206805F0BAFA30
:1034D0005021206805F076F91DE0EA6869682068E7
:1034E00005F0C3FA6021206805F06CF913E0EA6882
:1034F0006968206805F0A6FA4021206805F062F9A5
:1035000009E000BF00BF00BF2968206805F05AF934
:1035100001E0012700BF00BF012084F83D0000BF8B
:10352000002084F83C0000BF384684E788FFFEFF97
:10353000704710B5044620680069C0F34000D8B158
:103540002068C068C0F34000B0B16FF0020021688D
:103550000861012020772068806900F0030018B11D
:103560002046FFF7E5FF05E0204600F0EDF8204695
:1035700000F0DBF90020207720680069C0F38000AC
:10358000D8B12068C068C0F38000B0B16FF004000B
:1035900021680861022020772068806900F440706B
:1035A00018B12046FFF7C4FF05E0204600F0CCF834
:1035B000204600F0BAF90020207720680069C0F3A7
:1035C000C000D8B12068C068C0F3C000B0B16FF0CF
:1035D000080021680861042020772068C06900F095
:1035E000030018B12046FFF7A3FF05E0204600F0D6
:1035F000ABF8204600F099F9002020772068006998
:10360000C0F30010D8B12068C068C0F30010B0B19A
:103610006FF0100021680861082020772068C069D9
:1036200000F4407018B12046FFF782FF05E0204605
:1036300000F08AF8204600F078F900202077206812
:10364000006900F0010058B12068C06800F0010076
:1036500030B16FF0010021680861204600F068FA7F
:1036600020680069C0F3C01058B12068C068C0F37A
:10367000C01030B16FF08000216808612046FFF76C
:103680004FFD20680069C0F3002058B12068C06871
:10369000C0F3C01030B16FF480702168086120461B
:1036A000FFF73DFD20680069C0F3801058B1206825
:1036B000C068C0F3801030B16FF04000216808612D
:1036C000204600F036FA20680069C0F3401058B177
:1036D0002068C068C0F3401030B16FF0200021684E
:1036E00008612046FFF71DFD10BD000010B586B033
:1036F0000446142101A8FDF7B3F810492068884258
:103700001AD100BF0E48006840F008000C4908605C
:103710000846006800F00800009000BF00BF881451
:103720000190022002900020039004900220059056
:1037300001A90448FEF770F806B010BD000800406B
:1037400030380240000C024070472DE9F041044639
:103750000D461646002700BF94F83C00012802D110
:103760000220BDE8F081012084F83C0000BF0C2E4F
:1037700051D005DC4EB1042E1ED0082E7AD133E094
:10378000102E60D0142EF9D175E02946206805F07E
:1037900023F82068806940F008002168886120686B
:1037A000806920F0040021688861206880692969A7
:1037B00008432168886178E02946206805F046F8CA
:1037C0002068806940F40060216888612068806911
:1037D00020F480602168886120688069296940EA56
:1037E00001202168886160E02946206805F06EF8B4
:1037F0002068C06940F008002168C8612068C0697D
:1038000020F004002168C8612068C0692969084364
:103810002168C86149E02946206805F095F82068CC
:10382000C06940F400602168C8612068C06920F464
:1038300080602168C8612068C069296940EA012068
:103840002168C86131E02946206805F0A9F82068A0
:10385000406D40F00800216848652068406D20F008
:103860000400216848652068406D29690843216883
:1038700048651AE017E02946206805F0B9F8206885
:10388000406D40F40060216848652068406D20F478
:103890008060216848652068406D296940EA012000
:1038A0002168486501E0012700BF00BF00BF00207C
:1038B00084F83C0000BF384653E710B504460CB905
:1038C000012010BD94F83D0028B9002084F83C0088
:1038D000204600F029F8022084F83D00211D2068D0
:1038E00004F0E8FE012084F8480000BF84F83E00A0
:1038F00001213F2001554020015541200155422022
:1039000001554320015500BF00BF012084F8440049
:1039100045200155462001554720015500BF012093
:1039200084F83D000020CCE77047704770B504462E
:103930000D4615B994F83E0015E0042D02D13F2044
:10394000005D10E0082D02D14020005D0BE00C2D41
:1039500002D14120005D06E0102D02D14220005D21
:1039600001E04320005D012801D0012070BD1DB998
:10397000022084F83E001AE0042D03D102213F20EA
:10398000015514E0082D03D10221402001550EE01D
:103990000C2D03D102214120015508E0102D03D147
:1039A00002214220015502E002214320015501225B
:1039B0002946206804F0EAFE25492068884203D0A1
:1039C00024492068884201D1012000E0002028B16C
:1039D0002068406C40F40040216848641C4920681D
:1039E00088421BD02068B0F1804F17D01A49206858
:1039F000884213D01949206888420FD0184920689E
:103A000088420BD013492068884207D015492068A6
:103A1000884203D014492068884210D12068806809
:103A2000124900EA0106062E0FD0B6F5803F0CD0F1
:103A30002068006840F001002168086005E0206807
:103A4000006840F001002168086000208EE7000057
:103A50000000014000040140000400400008004054
:103A6000000C004000400140001800400700010029
:103A700030B504460D4600222946206804F086FE33
:103A800029492068884203D028492068884201D10A
:103A9000012000E0002090B100BF2068006A41F2E0
:103AA0001111084050B92068006A8910084028B9EF
:103AB0002068406C20F400402168486400BF00BFCB
:103AC0002068006A41F21111084050B92068006A6C
:103AD0008910084028B92068006820F0010021689A
:103AE000086000BF1DB9012084F83E001AE0042DD3
:103AF00003D101213F20015514E0082D03D10121FC
:103B0000402001550EE00C2D03D10121412001552B
:103B100008E0102D03D101214220015502E00121CE
:103B200043200155002030BD000001400004014049
:103B30007047704770477047704701468B6FCA6F78
:103B400043EA0200704700002DE9F0470446206870
:103B5000C569206806682068876840F60F0005EA96
:103B60000009B9F1000F0CD105F0200048B106F0B2
:103B7000200030B1606E10B12046616E8847BDE80C
:103B8000F087B9F1000F7DD007F0010018B9BD48EA
:103B900030400028F7D005F0010058B106F48070DD
:103BA00040B1012021680862D4F8800040F0010093
:103BB000C4F8800005F0020058B107F0010040B1E0
:103BC000022021680862D4F8800040F00400C4F8A4
:103BD000800005F0040058B107F0010040B1042056
:103BE00021680862D4F8800040F00200C4F8800028
:103BF00005F0080070B106F0200010B907F00100D0
:103C000040B1082021680862D4F8800040F0080024
:103C1000C4F8800005F4006060B106F0806048B12F
:103C20004FF4006021680862D4F8800040F0200062
:103C3000C4F88000D4F8800000284BD005F02000A4
:103C400038B106F0200020B1606E10B12046616EE0
:103C50008847D4F880A02068806800F040004028A1
:103C600002D00AF0280070B3204604F0D3FF206889
:103C7000806800F04000402821D100BF00BF2168CB
:103C8000083100E027E051E8001F21F040002168E2
:103C9000083141E80002002AF1D100BF206F50B185
:103CA0007948216F0865206FFDF752FB90B1206FB6
:103CB000016D88470EE02046FFF73EFF0AE02046F0
:103CC000FFF73AFF06E0FFE72046FFF735FF002049
:103CD000C4F8800053E7206E01287CD105F0100065
:103CE000002878D006F010000028FAD010202168B3
:103CF00008622068806800F0400040285BD1206F97
:103D0000006840681FFA80F8B8F1000F52D0B4F88C
:103D1000580040454EDDA4F85A80206FC069B0F5C8
:103D2000807F3ED000BF00BF216851E8001F21F412
:103D30008070226842E800010029F5D100BF00BF71
:103D400000BF2168083151E8001F21F001002168FF
:103D5000083141E80002002AF3D100BF00BF00BFD4
:103D60002168083151E8001F21F040002168083126
:103D700041E80002002AF3D100BF2020E0670020C4
:103D8000206600BF00BF216851E8001F21F010002D
:103D9000226842E800010029F5D100BF206FFDF73D
:103DA00081FAB4F85800B4F85A20801A81B220463B
:103DB000FFF7C0FEE3E634F8580F6188401A1FFA97
:103DC00080F86088583CB0B3B8F1000F33D000BF22
:103DD00000BF216800E02FE051E8001F21F490703F
:103DE000226842E800010029F3D100BF00BF00BFF4
:103DF0002168083151E8001F21F0010021680831D5
:103E000041E80002002AF3D100BF2020E067002033
:103E10002066606600BF00BF216851E8001F21F0E6
:103E20001000226842E800010029F5D100BF414698
:103E30002046FFF77FFEA2E605F4801050B107F49C
:103E4000800038B14FF48010216808622046FFF7E7
:103E500072FE94E605F0800040B106F0800028B1C3
:103E6000A06E10B12046A16E884788E605F040009C
:103E700030B106F0400018B1204604F0FDFE7EE6A9
:103E800000BF7CE620010004FD8B000810B504464D
:103E90000CB9012010BDA06900B100E000BFA06F07
:103EA00028B9002084F87400204600F029F8242066
:103EB000A0672068006820F00100216808602046A3
:103EC00004F0BEFF012800D1E4E7606A10B120468B
:103ED00004F0DFFD2068406820F4904021684860CD
:103EE0002068806820F02A002168886020680068C7
:103EF00040F0010021680860204604F046FEC9E752
:103F000010B586B00446142101A8FCF7A9FC554958
:103F1000206888422DD100BF5348006840F010004F
:103F2000514908600846006800F01000009000BF8A
:103F300000BF00BF4C481438006840F001004A49F7
:103F4000143908600846006800F00100009000BFC6
:103F500000BF4FF4C0600190022002900020039047
:103F6000032004900720059001A94048FDF754FC68
:103F700075E03F492068884236D100BF3A48001FAB
:103F8000006840F400303849091F0860084600689E
:103F900000F40030009000BF00BF00BF324814386A
:103FA000006840F001003049143908600846006894
:103FB00000F00100009000BF00BF0C200190022023
:103FC000029001200390032004900720059001A98E
:103FD0002648FDF721FC002211462620FDF708FEA9
:103FE0002620FDF7F5FD3AE022492068884236D1C7
:103FF00000BF1D48001F006840F480201A49091FB7
:1040000008600846006800F48020009000BF00BFF0
:1040100000BF15481438006840F0020012491439F6
:1040200008600846006800F00200009000BF00BF72
:104030004FF4406001900220029001200390032081
:1040400004900720059001A90B48FDF7E5FB00222D
:1040500011462720FDF7CCFD2720FDF7B9FD06B05E
:1040600010BD000000100140443802400000024032
:1040700000440040004800400004024070B504467F
:104080000D461646E06F202828D105B10EB9012053
:1040900070BD00BF94F87400012801D10220F7E739
:1040A000012084F8740000BF00202066206840686A
:1040B00000F4000060B100BF00BF216851E8001F9C
:1040C00041F08060226842E800010029F5D100BF7C
:1040D00032462946204605F051F8D9E70220D7E7B5
:1040E0001D4A0168914236D11C49098801F40041FA
:1040F00089BB1A49098801F4804171B118490978CE
:104100000A2903D00021154A118024E013490988A7
:1041100041F40041114A11801DE0114909780D292F
:1041200006D10E49098841F480410C4A118012E001
:104130000B490978094A1288C2F30D02094B9954B8
:1041400006490988491C054A1180114609886329D6
:1041500001DD00211180704700440040DC04002094
:10416000DE040020AC3201202DE9F84F04460E4653
:1041700017469946A06F20285DD106B117B90120D6
:10418000BDE8F88F00BF94F87400012801D1022027
:10419000F6E7012084F8740000BF0020503420634B
:1041A0002120A062FDF74CFC824627806780503CAE
:1041B000A068B0F5805F04D1206910B90025B04631
:1041C00002E035464FF0000800BF002084F874007C
:1041D00000BF1DE05346002280212046CDF800900C
:1041E00005F04AF808B10320CAE745B9B8F800005D
:1041F000C0F308002168886208F1020803E028780B
:10420000216888626D1CB4F85200401EA4F8520068
:10421000B4F852000028DDD1534600224021204648
:10422000CDF8009005F028F808B10320A8E7202079
:10423000A0670020A4E70220A2E7704731B5002460
:1042400015E09DF8000078B14FF47A7301226946B9
:104250000948FFF789FF00BF07480068C069C0F33D
:10426000C0100028F8D000E038BD601CC4B2032C98
:10427000E7DB00BFF8E700009433012070B5044687
:10428000002514E0605D88B161194FF47A73012252
:104290000748FFF769FF00BF05480068C069C0F321
:1042A000C0100028F8D0681CC5B200E070BDE9E776
:1042B0009433012000BFFEE7F0B5ADF26C7D0646F9
:1042C00000201AE0634901EB00310DF25C7242F804
:1042D000201000210EE09FED600AC0EBC00202EB4F
:1042E00040125E4B03EB820202EB810282ED000A78
:1042F0004A1C91B22729EEDB401C0428E2DB002790
:10430000A1E04FF49655002469E02946402006F0CC
:10431000FBF906F021F90A20FDF7F4F94FF480616A
:104320004F48FCF793FD4FF480620DF25C714C48EE
:10433000FCF72CFD02A903A800EB8400CDE90001E5
:104340009FA800EB84030DF2EC4000EB84024FF4D5
:104350008061404803F098F802A92AA800EB840085
:10436000CDE90001C6A800EB84030DF5B16000EBB8
:1043700084024FF480613B4803F086F802A951A8FB
:1043800000EB8400CDE90001EDA800EB84030DF201
:10439000246000EB84024FF48061334803F074F82A
:1043A00002A978A800EB8400CDE900010DF58A6030
:1043B00000EB84030DF5D86000EB84024FF48061BC
:1043C0002A4803F061F844F62060854202D14FF498
:1043D000965502E005F5C87085B2601C84B2272CA2
:1043E00093DB00202CE0002126E0C0EBC00202EBB2
:1043F000401203AB03EB820202EB8102D2ED000A12
:10440000B1EE041A80EE810AC0EBC00202EB40124A
:10441000124B03EB820202EB8102D2ED000A30EE76
:10442000200AC0EBC00202EB401203EB820202EB57
:10443000810282ED000A491C2729D6DB411C88B283
:104440000428D0DB7F1CB742FFF65BAF0DF26C7D1A
:10445000F0BD00009C74012000000000DCC60320B9
:104460009C3401209C8401209C9401209CA4012068
:1044700070B5C0B0002515E04FF400714648FDF757
:10448000D1FA08B901250DE020214448FDF7CAFA08
:1044900008B9022506E04FF480514148FDF7C2FA01
:1044A00000B90325002DE7D0012D04D0022D3BD00B
:1044B000032D6BD144E03B488668002415E0394861
:1044C0004368C4EBC40000EB4410374901EB8002A1
:1044D00031463648006805F03DF932488068314978
:1044E000496808442F498860641C032CE7DB30A12D
:1044F000684605F08DFA6846FFF7C0FEFF20FFF71B
:104500009DFE28488089401C26498881084682896A
:104510002EA1684605F07CFA6846FFF7AFFEFF2043
:10452000FFF78CFE002533E02DA1684605F070FAF8
:104530006846FFF7A3FEFF20FFF780FE002527E077
:104540001848806817494968032202FB1100154981
:1045500088602AA1684605F05BFA6846FFF78EFE80
:10456000FF20FFF76BFE0F488089401E0D498881B0
:104570000846828915A1684605F04AFA6846FFF7A1
:104580007DFEFF20FFF75AFE002501E0002500BF59
:1045900000BF40B070BD00000008024000040240AF
:1045A0000000024018050020DCC6032004000020A3
:1045B00074302E7478743D22736176652073756350
:1045C00063657366756C6C792200000074312E741B
:1045D00078743D22736176656420256422000000B2
:1045E00074302E7478743D22536B69702053756358
:1045F0006565737366756C6C7922000074302E7477
:1046000078743D2272657365742073756363657396
:1046100066756C6C792200001FB500200090019037
:1046200002900390FDF77EFA01208DF80000002033
:104630008DF801004FF0C04001901B208DF808005C
:1046400000208DF809008DF80A0003208DF80B007A
:1046500000208DF80C008DF80D008DF80E00012063
:104660008DF80F006846FDF72FFA01208DF8000045
:104670008DF801004FF04040019018208DF808009F
:1046800000208DF809008DF80A0003208DF80B003A
:1046900000208DF80C008DF80D008DF80E00012023
:1046A0008DF80F006846FDF70FFA0420FDF750FA69
:1046B0001FBD000008B500BF0A48006840F40010A4
:1046C000084908600846006800F40010009000BF28
:1046D00000BF002211461120FDF78AFA1120FDF7D4
:1046E00077FA08BD3038024000B58FB01C2108A809
:1046F000FCF7B6F81C2101A8FCF7B2F84FF02040F7
:1047000030490860304848600620886000212D4804
:10471000C16001611021416100218161C1610162BB
:104720004FF48051416200218162C16201634163A3
:104730008163C1630164002008900F2009900A90F2
:104740000A200B9010200C9011200D9000200E904C
:10475000002208A91B48FEF794FC08B1FCF778FC7E
:1047600019483C3019490860002048600121174869
:1047700081600821C16010210161402141614FF435
:10478000C07181610021C1614FF4006101620021AB
:1047900041624FF400518162022001900820029092
:1047A0000620039007200490052005900220069023
:1047B000079001A90548FEF73FFC08B1FCF748FC4B
:1047C0000FB000BDE8300120040100A03431012009
:1047D00000B587B0142102A8FCF742F800BF80485A
:1047E000006840F020007E4908600846006800F03C
:1047F0002000019000BF00BF00BF0846006840F0E5
:10480000800008600846006800F08000019000BF4A
:1048100000BF00BF0846006840F00400086008467A
:10482000006800F00400019000BF00BF00BF084610
:10483000006840F0010008600846006800F00100D0
:10484000019000BF00BF00BF0846006840F00200B2
:1048500008600846006800F00200019000BF00BF39
:1048600000BF0846006840F0400008600846006845
:1048700000F04000019000BF00BF00BF0846006884
:1048800040F0100008600846006800F01000019039
:1048900000BF00BF00BF0846006840F00800086085
:1048A0000846006800F00800019000BF00BF042027
:1048B000029000200390049002A94A48FCF7ACFF44
:1048C000402002904FF4041003900020049002A9AD
:1048D0004548FCF7A1FF4FF40070029000200390C0
:1048E000012004900320059002A94048FCF794FFA2
:1048F00020200290002003900120049003200590C6
:1049000002A93B48FCF788FF4FF48050029000203A
:104910000390012004900320059002A93548FCF77C
:104920007BFF4FF400600290002003900120049070
:104930000320059002A92F48FCF76EFF4FF400609A
:10494000029000200390012004900320059002A90A
:104950002448FCF761FF4FF480400290012003904F
:1049600004900320059002A91E48FCF755FF4FF460
:10497000807002900120039004900320059002A90A
:104980001A48FCF749FF4FF4007002900120039091
:1049900004900320059002A91248FCF73DFF4FF454
:1049A000806002900120039004900320059002A9EA
:1049B0000C48FCF731FF8020029001200390049006
:1049C0000320059002A90948FCF726FF00221146A2
:1049D0001720FDF70DF91720FDF7FAF807B000BD15
:1049E00030380240001C0240000C02400008024027
:1049F000000402400000024010B50C480C49086059
:104A00000220486004210A4881601021C1601821F9
:104A100001614FF48061416100218161C1610162E6
:104A2000FDF7D2F908B1FCF713FB10BD001000A090
:104A30006831012000B58FB000200B900C900D90D4
:104A40000E90089009900A901C2101A8FBF708FF1E
:104A50002148224908600020486000211F488160E9
:104A6000D721C1600021016180218161FEF7C0FB77
:104A700008B1FCF7EDFA4FF480500B900BA91748E2
:104A8000FEF7CEFC08B1FCF7E3FA1448FEF715FF79
:104A900008B1FCF7DDFA2020089000200A9008A950
:104AA0000E48FEF73FFB08B1FCF7D2FA60200190F8
:104AB000CD2002900020039004200590002201A93F
:104AC0000648FEF742FE08B1FCF7C2FA0348FEF7BB
:104AD0000DFE0FB000BD000000080040B431012001
:104AE00000B587B0002003900490059006900090D8
:104AF000019002901348144908600020486000218A
:104B000011488160491EC160002101618161FEF789
:104B10006FFB08B1FCF79CFA4FF48050039003A997
:104B20000948FEF77DFC08B1FCF792FA00200090DE
:104B3000029069460448FEF7F5FA08B1FCF788FAD6
:104B400007B000BD000C00400032012010B50D4838
:104B50000D4908604FF4E130486000210A48816047
:104B6000C16001610C21416100218161C16101626B
:104B70000020054948620846FFF788F908B1FCF7AC
:104B800067FA10BD001001401033012010B50D4828
:104B90000D4908604FF4E130486000210A48816007
:104BA000C16001610C21416100218161C16101622B
:104BB0000020054948620846FFF768F908B1FCF78C
:104BC00047FA10BD004400409433012010B50A4854
:104BD0000A4908604FF4E1304860002107488160CD
:104BE000C16001610C21416100218161FFF74EF933
:104BF00008B1FCF72DFA10BD004800401834012020
:104C000000BFFEE77047000010B501201249087090
:104C10001248FEF7EBFB00211048FEF729FF00BF0A
:104C20000E480068006820F440700C49096808606C
:104C30000A480068006840F00300084909680860F5
:104C400003210648016100BF4FF47A7004490860EF
:104C50000449086010BD00000C000020B4310120A0
:104C600010000020140000200146002007E0DFEDC6
:104C7000FE0AFE4A02EB8002C2ED000A401C9028A8
:104C8000F5DB002002F0CCBBF94A02EB8002D2ED4A
:104C9000000A60EE800A01EB800292ED001A41EEFC
:104CA000400AF34A02EB800292ED001A21EE001A4C
:104CB00001EB8002D2ED001A01EEC01AEB4AD2EDF0
:104CC000001A40EE811AC2ED001AEA4A02EB800295
:104CD000D2ED000A20EE801A01EB8002D2ED000A2C
:104CE00000EEC01AE34A02EB8002D2ED000A60EE49
:104CF000800A01EB8002D2ED001A41EEC00ADB4AC5
:104D0000D2ED011A41EE201AC2ED011ADA4A02EB85
:104D10008002D2ED000A60EE800A01EB800292ED83
:104D2000001A41EE400AD44A02EB800292ED001ACA
:104D300021EE001A01EB8002D2ED001A01EEC01A3A
:104D4000CA4AD2ED021A40EE811AC2ED021ACB4ACB
:104D500002EB8002D2ED000A60EE800A01EB8002D5
:104D600092ED001A41EE400AC44A02EB800292ED35
:104D7000001A21EE001A01EB8002D2ED001A01EEBA
:104D8000C01ABA4AD2ED031A40EE811AC2ED031AD4
:104D9000BB4A02EB8002D2ED000A60EE800A01EB12
:104DA000800292ED001A41EE400AB54A02EB800201
:104DB00092ED001A21EE001A01EB8002D2ED001AEA
:104DC00001EEC01AA94AD2ED041A40EE811AC2EDD2
:104DD000041AAC4A02EB8002D2ED000A20EE801ADF
:104DE00001EB8002D2ED000A00EEC01AA54A02EBE8
:104DF0008002D2ED000A60EE800A01EB8002D2ED63
:104E0000001A41EEC00A994AD2ED051A41EE201A65
:104E1000C2ED051A9C4A02EB8002D2ED000A20EE98
:104E2000801A01EB8002D2ED000A00EEC01A964A09
:104E300002EB8002D2ED000A60EE800A01EB8002F4
:104E4000D2ED001A41EEC00A884AD2ED061A41EEB0
:104E5000201AC2ED061A8D4A02EB8002D2ED000A3A
:104E600060EE800A01EB800292ED001A41EE400AEA
:104E7000864A02EB800292ED001A21EE001A01EB45
:104E80008002D2ED001A01EEC01A784AD2ED071A5C
:104E900040EE811AC2ED071A7D4A02EB8002D2ED84
:104EA000000A20EE801A01EB8002D2ED000A00EE2B
:104EB000C01A774A02EB8002D2ED000A60EE800A47
:104EC00001EB8002D2ED001A41EEC00A674AD2ED32
:104ED000081A41EE201AC2ED081A6E4A02EB80024F
:104EE000D2ED000A20EE801A01EB8002D2ED000A1A
:104EF00000EEC01A674A02EB8002D2ED000A60EEB3
:104F0000800A01EB8002D2ED001A41EEC00A574A36
:104F1000D2ED091A41EE201AC2ED091A5E4A02EBDF
:104F20008002D2ED000A60EE800A01EB800292ED71
:104F3000001A41EE400A584A02EB800292ED001A34
:104F400021EE001A01EB8002D2ED001A01EEC01A28
:104F5000464AD2ED0A1A40EE811AC2ED0A1A4F4AA9
:104F600002EB8002D2ED000A60EE800A01EB8002C3
:104F700092ED001A41EE400A484A02EB800292ED9F
:104F8000001A21EE001A01EB8002D2ED001A01EEA8
:104F9000C01A364AD2ED0B1A40EE811AC2ED0B1A36
:104FA0003F4A02EB8002D2ED000A60EE800A01EB7C
:104FB000800292ED001A41EE400A394A02EB80026B
:104FC00092ED001A21EE001A01EB8002D2ED001AD8
:104FD00001EEC01A254AD2ED0C1A40EE811AC2ED3C
:104FE0000C1A304A02EB8002D2ED000A20EE801A41
:104FF00001EB8002D2ED000A00EEC01A294A02EB52
:105000008002D2ED000A60EE800A01EB8002D2ED50
:10501000001A41EEC00A154AD2ED0D1A41EE201ACF
:10502000C2ED0D1A204A02EB8002D2ED000A20EEFA
:10503000801A01EB8002D2ED000A00EEC01A1A4A73
:1050400002EB8002D2ED000A60EE800A01EB8002E2
:10505000D2ED001A41EEC00A044AD2ED0E1A41EE1A
:10506000201AC2ED0E1A21E0000000009CC40320AB
:1050700038AB00080CAD0008E0AE0008B4B0000882
:1050800088B200085CB4000830B6000804B8000814
:10509000D8B90008ACBB000880BD000854BF0008A8
:1050A00028C10008FCC20008D0C40008FE4A02EB78
:1050B0008002D2ED000A20EE801A01EB8002D2EDD0
:1050C000000A00EEC01AF84A02EB8002D2ED000A94
:1050D00060EE800A01EB8002D2ED001A41EEC00AB8
:1050E000F24AD2ED0F1A41EE201AC2ED0F1AF04A21
:1050F00002EB8002D2ED000A60EE800A01EB800232
:1051000092ED001A41EE400AE94A02EB800292ED6C
:10511000001A21EE001A01EB8002D2ED001A01EE16
:10512000C01AE24AD2ED101A40EE811AC2ED101AEE
:10513000E04A02EB8002D2ED000A60EE800A01EB49
:10514000800292ED001A41EE400ADA4A02EB800238
:1051500092ED001A21EE001A01EB8002D2ED001A46
:1051600001EEC01AD14AD2ED111A40EE811AC2EDF9
:10517000111AD14A02EB8002D2ED000A20EE801A09
:1051800001EB8002D2ED000A00EEC01ACA4A02EB1F
:105190008002D2ED000A60EE800A01EB8002D2EDBF
:1051A000001A41EEC00AC14AD2ED121A41EE201A8D
:1051B000C2ED121AC14A02EB8002D2ED000A20EEC3
:1051C000801A01EB8002D2ED000A00EEC01ABB4A41
:1051D00002EB8002D2ED000A60EE800A01EB800251
:1051E000D2ED001A41EEC00AB04AD2ED131A41EED8
:1051F000201AC2ED131AB24A02EB8002D2ED000A65
:1052000020EE801A01EB8002D2ED000A00EEC01AF7
:10521000AB4A02EB8002D2ED000A60EE800A01EB9D
:105220008002D2ED001A41EEC00AA04AD2ED141A53
:1052300041EE201AC2ED141AA24A02EB8002D2ED0E
:10524000000A60EE800A01EB800292ED001A41EE46
:10525000400A9C4A02EB800292ED001A21EE001AED
:1052600001EB8002D2ED001A01EEC01A8F4AD2ED96
:10527000151A40EE811AC2ED151A934A02EB80020C
:10528000D2ED000A20EE801A01EB8002D2ED000A76
:1052900000EEC01A8C4A02EB8002D2ED000A60EEEA
:1052A000800A01EB8002D2ED001A41EEC00A7F4A6B
:1052B000D2ED161A41EE201AC2ED161A834A02EBFD
:1052C0008002D2ED000A60EE800A01EB800292EDCE
:1052D000001A41EE400A7D4A02EB800292ED001A6C
:1052E00021EE001A01EB8002D2ED001A01EEC01A85
:1052F0006E4AD2ED171A40EE811AC2ED171A744A9F
:1053000002EB8002D2ED000A60EE800A01EB80021F
:1053100092ED001A41EE400A6D4A02EB800292EDD6
:10532000001A21EE001A01EB8002D2ED001A01EE04
:10533000C01A5E4AD2ED181A40EE811AC2ED181A50
:10534000644A02EB8002D2ED000A20EE801A01EBE3
:105350008002D2ED000A00EEC01A5E4A02EB800223
:10536000D2ED000A60EE800A01EB8002D2ED001A55
:1053700041EEC00A4D4AD2ED191A41EE201AC2ED93
:10538000191A554A02EB8002D2ED000A20EE801A6B
:1053900001EB8002D2ED000A00EEC01A4E4A02EB89
:1053A0008002D2ED000A60EE800A01EB8002D2EDAD
:1053B000001A41EEC00A3D4AD2ED1A1A41EE201AF7
:1053C000C2ED1A1A454A02EB8002D2ED000A60EEE5
:1053D000800A01EB800292ED001A41EE400A3F4A3A
:1053E00002EB800292ED001A21EE001A01EB80021E
:1053F000D2ED001A01EEC01A2C4AD2ED1B1A40EE73
:10540000811AC2ED1B1A364A02EB8002D2ED000A65
:1054100060EE800A01EB800292ED001A41EE400A34
:105420002F4A02EB800292ED001A21EE001A01EBE6
:105430008002D2ED001A01EEC01A1C4AD2ED1C1AED
:1054400040EE811AC2ED1C1A264A02EB8002D2ED10
:10545000000A20EE801A01EB8002D2ED000A00EE75
:10546000C01A204A02EB8002D2ED000A60EE800AE8
:1054700001EB8002D2ED001A41EEC00A0B4AD2EDD8
:105480001D1A41EE201AC2ED1D1A174A02EB8002C6
:10549000D2ED000A20EE801A01EB8002D2ED000A64
:1054A00000EEC01A104A21E0A4C600089CC40320E4
:1054B00078C800084CCA000820CC0008F4CD0008C9
:1054C000C8CF00089CD1000870D3000844D500085C
:1054D00018D70008ECD80008C0DA000894DC0008EF
:1054E00068DE00083CE0000810E2000802EB8002E1
:1054F000D2ED000A60EE800A01EB8002D2ED001AC4
:1055000041EEC00AFE4AD2ED1E1A41EE201AC2ED4B
:105510001E1AFC4A02EB8002D2ED000A60EE800AFD
:1055200001EB800292ED001A41EE400AF54A02EBCF
:10553000800292ED001A21EE001A01EB8002D2EDFA
:10554000001A01EEC01AEE4AD2ED1F1A40EE811A7F
:10555000C2ED1F1AEC4A02EB8002D2ED000A20EEE7
:10556000801A01EB8002D2ED000A00EEC01AE64A72
:1055700002EB8002D2ED000A60EE800A01EB8002AD
:10558000D2ED001A41EEC00ADD4AD2ED201A41EEFA
:10559000201AC2ED201ADD4A02EB8002D2ED000A89
:1055A00060EE800A01EB800292ED001A41EE400AA3
:1055B000D64A02EB800292ED001A21EE001A01EBAE
:1055C0008002D2ED001A01EEC01ACD4AD2ED211AA6
:1055D00040EE811AC2ED211ACD4A02EB8002D2EDD3
:1055E000000A60EE800A01EB800292ED001A41EEA3
:1055F000400AC74A02EB800292ED001A21EE001A1F
:1056000001EB8002D2ED001A01EEC01ABC4AD2EDC5
:10561000221A40EE811AC2ED221ABE4A02EB800223
:10562000D2ED000A20EE801A01EB8002D2ED000AD2
:1056300000EEC01AB74A02EB8002D2ED000A60EE1B
:10564000800A01EB8002D2ED001A41EEC00AAC4A9A
:10565000D2ED231A41EE201AC2ED231AAE4A02EB14
:105660008002D2ED000A20EE801A01EB8002D2ED1A
:10567000000A00EEC01AA84A02EB8002D2ED000A2E
:1056800060EE800A01EB8002D2ED001A41EEC00A02
:105690009B4AD2ED241A41EE201AC2ED241A9F4AE9
:1056A00002EB8002D2ED000A60EE800A01EB80027C
:1056B00092ED001A41EE400A984A02EB800292ED08
:1056C000001A21EE001A01EB8002D2ED001A01EE61
:1056D000C01A8B4AD2ED251A40EE811AC2ED251A66
:1056E0008F4A02EB8002D2ED000A60EE800A01EBE5
:1056F000800292ED001A41EE400A894A02EB8002D4
:1057000092ED001A21EE001A01EB8002D2ED001A90
:1057100001EEC01A7A4AD2ED261A40EE811AC2ED85
:10572000261A804A02EB8002D2ED000A60EE800A5F
:1057300001EB800292ED001A41EE400A794A02EB39
:10574000800292ED001A21EE001A01EB8002D2EDE8
:10575000001A01EEC01A6A4AD2ED271A40EE811AE9
:10576000C2ED271A704A02EB8002D2ED000A60EE09
:10577000800A01EB800292ED001A41EE400A6A4A6B
:1057800002EB800292ED001A21EE001A01EB80027A
:10579000D2ED001A01EEC01A594AD2ED281A40EE95
:1057A000811AC2ED281A614A02EB8002D2ED000A8A
:1057B00020EE801A01EB8002D2ED000A00EEC01A42
:1057C0005A4A02EB8002D2ED000A60EE800A01EB39
:1057D0008002D2ED001A41EEC00A494AD2ED291AE0
:1057E00041EE201AC2ED291A514A02EB8002D2ED95
:1057F000000A20EE801A01EB8002D2ED000A00EED2
:10580000C01A4B4A02EB8002D2ED000A60EE800A19
:1058100001EB8002D2ED001A41EEC00A384AD2ED07
:105820002A1A41EE201AC2ED2A1A424A02EB8002DD
:10583000D2ED000A60EE800A01EB800292ED001AC0
:1058400041EE400A3B4A02EB800292ED001A21EE43
:10585000001A01EB8002D2ED001A01EEC01A284AAC
:10586000D2ED2B1A40EE811AC2ED2B1A324A02EB0E
:105870008002D2ED000A60EE800A01EB800292ED18
:10588000001A41EE400A2C4A02EB800292ED001A07
:1058900021EE001A01EB8002D2ED001A01EEC01ACF
:1058A000174AD2ED2C1A40EE811AC2ED2C1A234A67
:1058B00002EB8002D2ED000A20EE801A01EB80029A
:1058C000D2ED000A00EEC01A1C4A02EB8002D2EDB3
:1058D000000A60EE800A01EB8002D2ED001A41EE70
:1058E000C00A074AD2ED2D1A41EE201AC2ED2D1A38
:1058F000134A02EB8002D2ED000A20EE801A21E06A
:105900009CC40320E4E30008B8E500088CE7000825
:1059100060E9000834EB000808ED0008DCEE000840
:10592000B0F0000884F2000858F400082CF60008D3
:1059300000F80008D4F90008A8FB00087CFD000866
:1059400050FF000801EB8002D2ED000A00EEC01A01
:10595000FE4A02EB8002D2ED000A60EE800A01EB03
:105960008002D2ED001A41EEC00AF94AD2ED2E1A99
:1059700041EE201AC2ED2E1AF64A02EB8002D2ED59
:10598000000A60EE800A01EB800292ED001A41EEFF
:10599000400AF04A02EB800292ED001A21EE001A52
:1059A00001EB8002D2ED001A01EEC01AE84AD2EDF6
:1059B0002F1A40EE811AC2ED2F1AE74A02EB80023D
:1059C000D2ED000A60EE800A01EB800292ED001A2F
:1059D00041EE400AE04A02EB800292ED001A21EE0D
:1059E000001A01EB8002D2ED001A01EEC01AD84A6B
:1059F000D2ED301A40EE811AC2ED301AD74A02EBCE
:105A00008002D2ED000A20EE801A01EB8002D2ED76
:105A1000000A00EEC01AD14A02EB8002D2ED000A61
:105A200060EE800A01EB8002D2ED001A41EEC00A5E
:105A3000C74AD2ED311A41EE201AC2ED311AC84AD6
:105A400002EB8002D2ED000A20EE801A01EB800208
:105A5000D2ED000A00EEC01AC14A02EB8002D2ED7C
:105A6000000A60EE800A01EB8002D2ED001A41EEDE
:105A7000C00AB74AD2ED321A41EE201AC2ED321AEC
:105A8000B84A02EB8002D2ED000A60EE800A01EB18
:105A9000800292ED001A41EE400AB24A02EB800207
:105AA00092ED001A21EE001A01EB8002D2ED001AED
:105AB00001EEC01AA64AD2ED331A40EE811AC2EDA9
:105AC000331AA94A02EB8002D2ED000A60EE800A86
:105AD00001EB800292ED001A41EE400AA24A02EB6D
